:1000000012C02CC02BC02AC029C028C03CC026C0AA
:1000100025C024C023C022C021C020C01FC01EC0D4
:100020001DC01CC01BC011241FBECFE5D4E0DEBF25
:10003000CDBF10E0A0E6B0E0E2E1FBE002C0059039
:100040000D92A236B107D9F722E0A2E6B0E001C0D6
:100050001D92A231B207E1F742D059C5D1CF87B97D
:10006000369A3699FECF84B125B190E0922B95B99E
:1000700084B984B195B10895E199FECF9FBB8EBB41
:10008000E09A8DB308951F920F920FB60F9211242C
:100090002F933F934F935F936F937F938F939F9390
:1000A000AF93BF93EF93FF93809110029091110251
:1000B00001969093110280931002AED3FF91EF91BD
:1000C000BF91AF919F918F917F916F915F914F9170
:1000D0003F912F910F900FBE0F901F901895379A58
:1000E00087B117B83E9A87B18F6D87B986B18660A0
:1000F00086B914BA8AE387BB18BA8FEF81BB15BAE9
:1001000012BA8EB588608EBD89B7806189BF84E6DA
:1001100090E09BBD8ABD8EB582608EBD83E190E08C
:100120009093BC008093BB008DE990E09093A50074
:100130008093A40083E090E09FDF90E090936100C3
:100140008093600088E090E097DF90E090937200E9
:10015000809371008B9734F089E290E09093720065
:100160008093710089E090E087DF90E09093D10068
:100170008093D0008B9734F089E290E09093D10087
:100180008093D00080E190E077DF90E09093BC0016
:100190008093BB008138910524F01092BC0010922E
:1001A000BB007894919A80E05ADF90936900809325
:1001B000680087E054DF909365008093640086E0D8
:1001C0004EDF90936300809362009198EBCFCF93C2
:1001D000DF9380916C0090916D008D30910509F056
:1001E0000CC3C8EED0E02A8D3B8D8091B700909172
:1001F000B800822B932B2C893D89220F331F220FAD
:10020000331F220F331F822B932B2E893F89220FFE
:10021000331F220F331F822B932B288D398D220FF2
:10022000331F822B932B9093B8008093B70008C0A4
:10023000C19AAD9A80916C0090916D000D9711F468
:10024000C19AAD9A80916C0090916D000E9761F407
:100250008091D2009091D300019721F08091B2005B
:100260008230B1F4C19AAD9A80916C0090916D008A
:100270008D3091050CF4CDC2469711F4C19AAD9A18
:1002800080916C0090916D004F9711F4C19AAD9AD6
:1002900080916C0090916D00889711F4C19AAD9A8D
:1002A00080916C0090916D00C19711F4C19AAD9A44
:1002B00080916C0090916D00CA9711F4C19AAD9A2B
:1002C00080916C0090916D008334910511F4C19A76
:1002D000AD9A80916C0090916D008C34910511F471
:1002E000C19AAD9A8091B7009091B8008230910583
:1002F00009F46AC01CF4892B49F08BC28330910544
:1003000009F47FC00E9709F41FC283C280916C006C
:1003100090916D00099711F4C19AAD9A80916C008B
:1003200090916D000D9711F4C19AAD9A80916C0077
:1003300090916D000E9761F48091D2009091D3005E
:10034000019721F08091B200823091F4C19AAD9A68
:1003500080916C0090916D00469711F4C19AAD9A0E
:1003600080916C0090916D004F9711F4C19AAD9AF5
:1003700080916C0090916D00889711F4C19AAD9AAC
:1003800080916C0090916D00C19711F4C19AAD9A63
:1003900080916C0090916D00CA9711F4C19AAD9A4A
:1003A00080916C0090916D008334910511F4C19A95
:1003B000AD9A80916C0090916D008C34910509F09C
:1003C00028C2C19AAD9A25C280916C0090916D00AF
:1003D0000D9711F4C19AAD9A80916C0090916D00C7
:1003E0000E9709F016C28091D2009091D300019728
:1003F00029F08091B200823009F00BC2C19AAD9A07
:1004000008C280916C0090916D000D9711F4C19A13
:10041000AD9A80916C0090916D000E9761F480917F
:10042000D2009091D300019721F08091B2008230E8
:1004300091F4C19AAD9A80916C0090916D004697AD
:1004400011F4C19AAD9A80916C0090916D004F9714
:1004500011F4C19AAD9A80916C0090916D008897CB
:1004600011F4C19AAD9A80916C0090916D00C19782
:1004700011F4C19AAD9A80916C0090916D00CA9769
:1004800011F4C19AAD9A80916C0090916D00833403
:10049000910511F4C19AAD9A80916C0090916D0014
:1004A0008C34910511F4C19AAD9A80916C009091B1
:1004B0006D009C012E5031092830310520F525E1D1
:1004C00030E0281B390B8091A4009091A50002C058
:1004D000959587952A95E2F78170992720917B0061
:1004E00030917C00822B932B90937C0080937B0037
:1004F000019711F4C19AAD9A80917B0090917C0094
:10050000892B09F4C19880916C0090916D004E97F1
:10051000E1F48091B200E82FE170F0E080917B007F
:1005200090917C00E82BF92BF0937C00E0937B000A
:10053000E130F10509F065C1C19AAD9A80917B0067
:1005400090917C00892B09F4C19880916C00909166
:100550006D0082970297D0F480919D00A82FA17022
:10056000B0E080917B0090917C00A82BB92BB093D8
:100570007C00A0937B00119711F4C19AAD9A8091F1
:100580007B0090917C00892B09F4C19880916C00CC
:1005900090916D0084970497D8F48091B200482F11
:1005A000417050E080917B0090917C00482B592B4A
:1005B00050937C0040937B004130510511F4C19A67
:1005C000AD9A80917B0090917C00892B09F4C198B1
:1005D00080916C0090916D008797E1F480910D02FD
:1005E000682F617070E080917B0090917C00682B97
:1005F000792B70937C0060937B006130710509F06A
:1006000004C1C19AAD9A80917B0090917C00892BA6
:1006100009F4C19820916C0030916D00C901C39715
:10062000069760F5809168009091690099230CF419
:100630000396959587959595879549E350E0BA017E
:10064000621B730B02C0959587956A95E2F78170DE
:10065000992720917B0030917C00822B932B9093E3
:100660007C0080937B00019711F4C19AAD9A809130
:100670007B0090917C00892B09F4C19880916C00DB
:1006800090916D009C012C5331092730310520F5E4
:1006900022E430E0281B390B80916A0090916B00B6
:1006A00002C0959587952A95E2F781709927209148
:1006B0007B0030917C00822B932B90937C00809365
:1006C0007B00019711F4C19AAD9A80917B009091C3
:1006D0007C00892B09F4C19820916C0030916D0049
:1006E000C90185549109079708F093C0809166006D
:1006F0009091670099230CF40396959587959595AD
:1007000087954BE450E0BA01621B730B02C09595CC
:1007100087956A95E2F78170992720917B00309147
:100720007C00822B932B90937C0080937B0001971D
:1007300011F4C19AAD9A80917B0090917C00892B35
:1007400009F067C0C19865C080916C0090916D0000
:100750000D9711F4C19AAD9A80916C0090916D0043
:100760004E9711F4C19AAD9A80916C0090916D00F2
:100770008D9711F4C19AAD9A80916C0090916D00A3
:100780008E9709F046C080912E0190912F0101971C
:1007900041F480913C0190913D01019711F4109238
:1007A000B2008091300190913101019741F4809124
:1007B0003E0190913F01019711F41092B200809197
:1007C000340190913501019749F480914201909153
:1007D0004301019719F481E08093B20080913201C6
:1007E000909133010197A9F48091400190914101CA
:1007F000019779F41092B2000CC0099709F022CD4C
:1008000017CDEF2B09F4A0CEE3CE672B09F401CF6F
:1008100063CFDF91CF910895909A86B3282F2170EE
:1008200030E03093CF002093CE0086B3847090E008
:100830009093B5008093B4002130310509F029C1AF
:100840008091A60081115DC18091A7009091A800C0
:100850009C01295031092230310528F41092A8005A
:100860001092A7002EC04297039738F481E090E0E1
:100870009093A8008093A70042C08091A700909118
:10088000A8004B970897E8F482E090E09093A800C6
:100890008093A70010926D0010926C00109270006F
:1008A00010926F0010928600109285001092B8008E
:1008B0001092B70020E030E09093E9008093E800C8
:1008C00082C08091A7009091A800893E9340BCF01F
:1008D00010926D0010926C001092700010926F00D8
:1008E00010928600109285001092B8001092B70006
:1008F0001092B2001092E9001092E80073C02091AB
:100900006C0030916D00F901EE0FFF1FE851FF4FB1
:100910008091A7009091A8009183808328303105B1
:1009200009F051C0E8EEF0E020893189809185001E
:1009300090918600822B932B24813581002436955B
:1009400027950794369527950794322F202D822BD3
:10095000932B26813781220F331F22953295307FCA
:100960003227207F3227822B932B208531852295B9
:100970003295307F3227207F3227822B932B22859E
:100980003385220F331F220F331F220F331F822B79
:10099000932B24853585220F331F220F331F822B83
:1009A000932B26853785220F331F822B932B909311
:1009B000860080938500009709F09AC01092880005
:1009C0001092870095C040918500509186008091DB
:1009D000BB009091BC004817590721F4283031051D
:1009E0000CF0F5DB81E08093A6001092BF0010921E
:1009F000A8001092A70010927C0010927B008091BA
:100A0000EA009091EB00019711F58091EC00909134
:100A1000ED00892BE1F480916C0090916D000297BC
:100A2000B1F480918700909188000196909388009E
:100A3000809387002091BB003091BC008217930700
:100A400031F49093860080938500C19AAD9A80918D
:100A50006C0090916D00019690936D0080936C00F6
:100A60002091CE003091CF002130310509F449C0EA
:100A700010C080918300909184000196909384002F
:100A8000809383008091CE009091CF00892BE9F074
:100A90002DC0232B59F58091BF00811116C0C1983C
:100AA000AD9881E08093BF001092A6001092840060
:100AB000109283001092700010926F008091CE000F
:100AC0009091CF00892B29F011C08091BF00813017
:100AD00069F410928400109283008091A700909195
:100AE000A80001969093A8008093A700909808957D
:100AF0002091BB003091BC008217930709F072CFA0
:100B000070CF8091A600813009F4B3CFEFCFF89475
:020B1000FFCF15
:020B12000500DC
:00000001FF
