S00F00004444532D322E312E737265637C
S113000012C02CC02BC02AC029C028C02FC026C0B3
S113001025C024C023C022C021C020C01FC01EC0D0
S11300201DC01CC01BC011241FBECFE5D4E0DEBF21
S1130030CDBF10E0A0E6B0E0E2EEFAE002C0059029
S11300400D92A236B107D9F722E0A2E6B0E001C0D2
S11300501D92AF32B207E1F735D041C5D1CFE19956
S1130060FECF9FBB8EBBE09A8DB308951F920F9273
S11300700FB60F9211242F933F934F935F936F9377
S11300807F938F939F93AF93BF93EF93FF9380914D
S11300902D0290912E02019690932E0280932D02B0
S11300A0A3D3FF91EF91BF91AF919F918F917F91D6
S11300B06F915F914F913F912F910F900FBE0F90D1
S11300C01F901895379A87B117B83E9A87B18F6DEC
S11300D087B986B1866286B9479A14BA8AE387BB20
S11300E018BA8FEF81BB15BA12BA8EB588608EBD6F
S11300F089B7806189BF84E690E09BBD8ABD8EB5D7
S113010082608EBD83E190E09093D3008093D2000F
S11301108DE990E09093B1008093B00082E090E08C
S11301209EDF90E09093C6008093C50083E090E04A
S113013096DF90E0909361008093600088E090E007
S11301408EDF90E090936E0080936D008B9734F077
S113015089E290E090936E0080936D0089E090E0D6
S11301607EDF90E09093E8008093E7008B9734F073
S113017089E290E09093E8008093E70080E190E0CA
S11301806EDF90E09093D3008093D2008138910584
S113019024F01092D3001092D2007894FFCFCF9322
S11301A0DF9380916800909169008D30910509F08A
S11301B00CC3CFEFD0E02A8D3B8D8091CE0090917F
S11301C0CF00822B932B2C893D89220F331F220FC2
S11301D0331F220F331F822B932B2E893F89220F2B
S11301E0331F220F331F822B932B288D398D220F1F
S11301F0331F822B932B9093CF008093CE0008C0A3
S1130200C19AAD9A80916800909169000D9711F49C
S1130210C19AAD9A80916800909169000E9761F43B
S11302208091E9009091EA00019721F08091C90042
S11302308230B1F4C19AAD9A8091680090916900BE
S11302408D3091050CF4CDC2469711F4C19AAD9A44
S113025080916800909169004F9711F4C19AAD9A0A
S11302608091680090916900889711F4C19AAD9AC1
S11302708091680090916900C19711F4C19AAD9A78
S11302808091680090916900CA9711F4C19AAD9A5F
S113029080916800909169008334910511F4C19AAA
S11302A0AD9A80916800909169008C34910511F4A5
S11302B0C19AAD9A8091CE009091CF008230910581
S11302C009F46AC01CF4892B49F08BC28330910570
S11302D009F47FC00E9709F41FC283C2809168009D
S11302E090916900099711F4C19AAD9A80916800C0
S11302F0909169000D9711F4C19AAD9A80916800AC
S1130300909169000E9761F48091E9009091EA0060
S1130310019721F08091C900823091F4C19AAD9A7D
S11303208091680090916900469711F4C19AAD9A42
S113033080916800909169004F9711F4C19AAD9A29
S11303408091680090916900889711F4C19AAD9AE0
S11303508091680090916900C19711F4C19AAD9A97
S11303608091680090916900CA9711F4C19AAD9A7E
S113037080916800909169008334910511F4C19AC9
S1130380AD9A80916800909169008C34910509F0D0
S113039028C2C19AAD9A25C28091680090916900E3
S11303A00D9711F4C19AAD9A8091680090916900FB
S11303B00E9709F016C28091E9009091EA00019726
S11303C029F08091C900823009F00BC2C19AAD9A1C
S11303D008C280916800909169000D9711F4C19A48
S11303E0AD9A80916800909169000E9761F48091B4
S11303F0E9009091EA00019721F08091C9008230D0
S113040091F4C19AAD9A80916800909169004697E1
S113041011F4C19AAD9A80916800909169004F9748
S113042011F4C19AAD9A80916800909169008897FF
S113043011F4C19AAD9A8091680090916900C197B6
S113044011F4C19AAD9A8091680090916900CA979D
S113045011F4C19AAD9A8091680090916900833437
S1130460910511F4C19AAD9A809168009091690048
S11304708C34910511F4C19AAD9A809168009091E1
S113048069009C012E5031092830310520F525E101
S113049030E0281B390B8091B0009091B10002C06C
S11304A0959587952A95E2F7817099272091870081
S11304B030918800822B932B90938800809387003F
S11304C0019711F4C19AAD9A8091870090918800A8
S11304D0892B09F4C19880916800909169004E9726
S11304E0E1F48091C900E82FE170F0E08091870089
S11304F090918800E82BF92BF0938800E093870013
S1130500E130F10509F065C1C19AAD9A8091870087
S113051090918800892B09F4C1988091680090918A
S1130520690082970297D0F48091A900A82FA17046
S1130530B0E08091870090918800A82BB92BB093EC
S11305408800A0938700119711F4C19AAD9A809105
S1130550870090918800892B09F4C19880916800E4
S11305609091690084970497D8F48091C900482F2A
S1130570417050E08091870090918800482B592B5E
S113058050938800409387004130510511F4C19A7B
S1130590AD9A8091870090918800892B09F4C198C5
S11305A080916800909169008797E1F4809124021A
S11305B0682F617070E08091870090918800682BAB
S11305C0792B70938800609387006130710509F07E
S11305D004C1C19AAD9A8091870090918800892BBB
S11305E009F4C1982091680030916900C901C3974A
S11305F0069760F5809164009091650099230CF44E
S11306000396959587959595879549E350E0BA01AA
S1130610621B730B02C0959587956A95E2F781700A
S113062099272091870030918800822B932B9093F7
S1130630880080938700019711F4C19AAD9A809144
S1130640870090918800892B09F4C19880916800F3
S1130650909169009C012C5331092730310520F514
S113066022E430E0281B390B8091660090916700EA
S113067002C0959587952A95E2F781709927209174
S1130680870030918800822B932B9093880080936D
S11306908700019711F4C19AAD9A809187009091D7
S11306A08800892B09F4C198209168003091690071
S11306B0C90185549109079708F093C0809162009D
S11306C09091630099230CF40396959587959595DD
S11306D087954BE450E0BA01621B730B02C09595F9
S11306E087956A95E2F78170992720918700309168
S11306F08800822B932B9093880080938700019726
S113070011F4C19AAD9A8091870090918800892B49
S113071009F067C0C19865C0809168009091690034
S11307200D9711F4C19AAD9A809168009091690077
S11307304E9711F4C19AAD9A809168009091690026
S11307408D9711F4C19AAD9A8091680090916900D7
S11307508E9709F046C0809145019091460101971A
S113076041F48091530190915401019711F4109236
S1130770C9008091470190914801019741F480910B
S1130780550190915601019711F41092C90080917E
S11307904B0190914C01019749F48091590190913A
S11307A05A01019719F481E08093C90080914901AD
S11307B090914A010197A9F48091570190915801B1
S11307C0019779F41092C9000CC0099709F022CD61
S11307D017CDEF2B09F4A0CEE3CE672B09F401CF9C
S11307E063CFDF91CF910895909A86B3282F21701B
S11307F030E03093E6002093E50086B3847090E007
S11308009093CC008093CB002130310509F029C1AD
S11308108091B20081115DC18091B3009091B400C8
S11308209C01295031092230310528F41092B4007A
S11308301092B3002EC04297039738F481E090E001
S11308409093B4008093B30042C08091B300909120
S1130850B4004B970897E8F482E090E09093B400DA
S11308608093B300109269001092680010926C009B
S113087010926B0010929200109291001092CF008F
S11308801092CE0020E030E0909300018093FF00AE
S113089082C08091B3009091B400893E9340BCF033
S11308A0109269001092680010926C0010926B0014
S11308B010929200109291001092CF001092CE00EC
S11308C01092C900109200011092FF0073C0209191
S11308D0680030916900F901EE0FFF1FE150FF4FEE
S11308E08091B3009091B4009183808328303105C6
S11308F009F051C0EFEFF0E0208931898091910037
S113090090919200822B932B24813581002436957B
S113091027950794369527950794322F202D822BFF
S1130920932B26813781220F331F22953295307FF6
S11309303227207F3227822B932B208531852295E5
S11309403295307F3227207F3227822B932B2285CA
S11309503385220F331F220F331F220F331F822BA5
S1130960932B24853585220F331F220F331F822BAF
S1130970932B26853785220F331F822B932B90933D
S1130980920080939100009709F09AC0109294000D
S11309901092930095C040919100509192008091E3
S11309A0D2009091D3004817590721F4283031051B
S11309B00CF0F5DB81E08093B2001092D600109227
S11309C0B4001092B30010928800109287008091B6
S11309D0010190910201019711F580910301909119
S11309E00401892BE1F480916800909169000297D9
S11309F0B1F48091930090919400019690939400A7
S1130A00809393002091D2003091D30082179307F2
S1130A1031F49093920080939100C19AAD9A8091A1
S1130A206800909169000196909369008093680032
S1130A302091E5003091E6002130310509F449C0E8
S1130A4010C080918F009091900001969093900037
S1130A5080938F008091E5009091E600892BE9F066
S1130A602DC0232B59F58091D600811116C0C19851
S1130A70AD9881E08093D6001092B200109290005D
S1130A8010928F0010926C0010926B008091E50020
S1130A909091E600892B29F011C08091D600813015
S1130AA069F41092900010928F008091B30090919D
S1130AB0B40001969093B4008093B3009098089585
S1130AC02091D2003091D3008217930709F072CF9E
S1130AD070CF8091B200813009F4B3CFEFCFF89496
S1050AE0FFCF42
S1050AE2050009
S9030000FC
