:1000000012C02CC02BC03FC029C028C068C026C069
:1000100025C024C023C022C021C020C01FC01EC0D4
:100020001DC01CC01BC011241FBECFE5D4E0DEBF25
:10003000CDBF10E0A0E6B0E0ECE7F0E102C0059033
:100040000D92A236B107D9F722E0A2E6B0E001C0D6
:100050001D92A135B207E1F759D00EC8D1CF87B9AB
:10006000369A3699FECF84B125B190E0922B95B99E
:1000700084B984B195B10895E199FECF9FBB8EBB41
:10008000E09A8DB308951F920F920FB60F9211242C
:100090002F933F934F935F936F937F938F939F9390
:1000A000AF93BF93EF93FF9380914F0290915002D3
:1000B00001969093500280934F02ECD4FF91EF9100
:1000C000BF91AF919F918F917F916F915F914F9170
:1000D0003F912F910F900FBE0F901F9018951F9278
:1000E0000F920FB60F9211248F939F938091E0008F
:1000F0009091E10001969093E1008093E0009F9140
:100100008F910F900FBE0F901F901895379A87B15F
:1001100017B83E9A87B18F6D87B986B1866286B966
:10012000479A80E284BB82E087BB88E188BB8EEF80
:1001300081BB15BA1FBC8EB58D608EBD1DBC1CBCAD
:1001400089E09DE39BBD8ABD80E189BF85B585BD02
:1001500085B58A6085BD14BC8FEF83BD89B7806883
:1001600089BF2FEF83EC99E0215080409040E1F768
:1001700000C00000869A1092400285E090E09093C3
:10018000DF008093DE001092E1001092E00083E037
:10019000809349021092C30010929B0010923D027E
:1001A00010927B0010927A00109200011092FF00D2
:1001B0001092EE001092EF001092F0001092F100F9
:1001C0001092BB001092BC001092BD001092BE00B5
:1001D00010927D0010927C001092CA001092C9000B
:1001E0001092FC001092FB001092C0001092BF0011
:1001F000109294001092D60083E190E09093EA0070
:100200008093E9008DE990E09093C2008093C10053
:1002100081E090E031DF8093490282E090E02CDFC2
:1002200090E09093DF008093DE0083E090E024DF95
:1002300090E0909361008093600086E090E01CDF86
:10024000823018F48093630003C081E080936300E0
:1002500087E090E011DF823018F48093620003C0E1
:1002600081E08093620088E090E006DF90E0909368
:100270007B0080937A008B9734F089E290E0909332
:100280007B0080937A0089E090E0F6DE90E0909326
:1002900000018093FF008B9734F089E290E0909307
:1002A00000018093FF0080E190E0E6DE90E0909313
:1002B000EA008093E9008138910524F01092EA0069
:1002C0001092E90081E190E0D7DE682F70E080E0D5
:1002D00090E0B9D56093EE007093EF008093F0004A
:1002E0009093F10020E030E048E752E43AD6181647
:1002F00064F480E090E0A4E7B2E48093EE00909391
:10030000EF00A093F000B093F10082E190E0B4DE42
:10031000682F70E080E090E096D56093BB0070930A
:10032000BC008093BD009093BE0020E030E048EC1C
:1003300052E417D6181664F480E090E0A8ECB2E41A
:100340008093EE009093EF00A093F000B093F10043
:1003500083E190E091DE90E0909346028093450225
:1003600084E190E089DE90E09093720080937100C8
:1003700085E190E081DE90E09093BA008093B9002F
:1003800086E190E079DEC82FD0E0D0939300C0934F
:1003900092006091710070917200072E000C880B22
:1003A000990B53D52DEC3CEC4CEC5DE3DED56B01A9
:1003B0007C016091450270914602072E000C880B6B
:1003C000990B43D59B01AC01C701B601D8D460930A
:1003D000390270933A0280933B0290933C02609101
:1003E000B9007091BA00072E000C880B990B2DD51F
:1003F0006B017C01BE01DD0F880B990B26D52DEC1E
:100400003CEC4CEC5DE3B1D59B01AC01C701B601FE
:10041000B6D46093740070937500809376009093C7
:10042000770010924A0280E01ADE90936700809372
:10043000660081E014DE90936500809364007894F8
:1004400010926F0010926E00FFCFCF93DF938091D8
:100450006B0090916C008D30910509F00CC3C7E1E1
:10046000D1E02A8D3B8D8091E5009091E600822BB2
:10047000932B2C893D89220F331F220F331F220F0C
:10048000331F822B932B2E893F89220F331F220F7C
:10049000331F822B932B288D398D220F331F822BF4
:1004A000932B9093E6008093E50008C0C19AAD9A23
:1004B00080916B0090916C000D9711F4C19AAD9AE8
:1004C00080916B0090916C000E9761F48091010116
:1004D00090910201019721F08091E2008230B1F405
:1004E000C19AAD9A80916B0090916C008D3091050E
:1004F0000CF4CDC2469711F4C19AAD9A80916B006D
:1005000090916C004F9711F4C19AAD9A80916B0055
:1005100090916C00889711F4C19AAD9A80916B000C
:1005200090916C00C19711F4C19AAD9A80916B00C3
:1005300090916C00CA9711F4C19AAD9A80916B00AA
:1005400090916C008334910511F4C19AAD9A809119
:100550006B0090916C008C34910511F4C19AAD9AA6
:100560008091E5009091E6008230910509F46AC01F
:100570001CF4892B49F08BC28330910509F47FC0AC
:100580000E9709F41FC283C280916B0090916C009A
:10059000099711F4C19AAD9A80916B0090916C000B
:1005A0000D9711F4C19AAD9A80916B0090916C00F7
:1005B0000E9761F48091010190910201019721F061
:1005C0008091E200823091F4C19AAD9A80916B00E3
:1005D00090916C00469711F4C19AAD9A80916B008E
:1005E00090916C004F9711F4C19AAD9A80916B0075
:1005F00090916C00889711F4C19AAD9A80916B002C
:1006000090916C00C19711F4C19AAD9A80916B00E2
:1006100090916C00CA9711F4C19AAD9A80916B00C9
:1006200090916C008334910511F4C19AAD9A809138
:100630006B0090916C008C34910509F028C2C19A2E
:10064000AD9A25C280916B0090916C000D9711F4CA
:10065000C19AAD9A80916B0090916C000E9709F051
:1006600016C28091010190910201019729F08091B9
:10067000E200823009F00BC2C19AAD9A08C28091A3
:100680006B0090916C000D9711F4C19AAD9A809116
:100690006B0090916C000E9761F480910101909134
:1006A0000201019721F08091E200823091F4C19A19
:1006B000AD9A80916B0090916C00469711F4C19AAD
:1006C000AD9A80916B0090916C004F9711F4C19A94
:1006D000AD9A80916B0090916C00889711F4C19A4B
:1006E000AD9A80916B0090916C00C19711F4C19A02
:1006F000AD9A80916B0090916C00CA9711F4C19AE9
:10070000AD9A80916B0090916C008334910511F447
:10071000C19AAD9A80916B0090916C008C349105D8
:1007200011F4C19AAD9A80916B0090916C009C017C
:100730002E5031092830310520F525E130E0281B05
:10074000390B8091C1009091C20002C095958795A8
:100750002A95E2F7817099272091950030919600B3
:10076000822B932B9093960080939500019711F420
:10077000C19AAD9A8091950090919600892B09F4C9
:10078000C19880916B0090916C004E97E1F480913C
:10079000E200E82FE170F0E08091950090919600E2
:1007A000E82BF92BF0939600E0939500E130F105EA
:1007B00009F065C1C19AAD9A80919500909196001B
:1007C000892B09F4C19880916B0090916C008297FD
:1007D0000297D0F48091B800A82FA170B0E080916A
:1007E000950090919600A82BB92BB0939600A093FA
:1007F0009500119711F4C19AAD9A8091950090914E
:100800009600892B09F4C19880916B0090916C003F
:1008100084970497D8F48091E200482F417050E00B
:100820008091950090919600482B592B50939600FB
:10083000409395004130510511F4C19AAD9A8091D1
:10084000950090919600892B09F4C19880916B00D6
:1008500090916C008797E1F480914202682F61705B
:1008600070E08091950090919600682B792B7093A1
:100870009600609395006130710509F004C1C19A3A
:10088000AD9A8091950090919600892B09F4C198BA
:1008900020916B0030916C00C901C397069760F5F9
:1008A000809166009091670099230CF403969595CA
:1008B00087959595879549E350E0BA01621B730BC4
:1008C00002C0959587956A95E2F7817099272091E6
:1008D000950030919600822B932B909396008093F5
:1008E0009500019711F4C19AAD9A8091950090916D
:1008F0009600892B09F4C19880916B0090916C004F
:100900009C012C5331092730310520F522E430E0D9
:10091000281B390B8091690090916A0002C095955F
:1009200087952A95E2F7817099272091950030915B
:100930009600822B932B90939600809395000197BD
:1009400011F4C19AAD9A8091950090919600892BEF
:1009500009F4C19820916B0030916C00C901855455
:100960009109079708F093C0809164009091650009
:1009700099230CF4039695958795959587954BE467
:1009800050E0BA01621B730B02C0959587956A957A
:10099000E2F7817099272091950030919600822B83
:1009A000932B9093960080939500019711F4C19A30
:1009B000AD9A8091950090919600892B09F067C0BF
:1009C000C19865C080916B0090916C000D9711F4F7
:1009D000C19AAD9A80916B0090916C004E9711F482
:1009E000C19AAD9A80916B0090916C008D9711F433
:1009F000C19AAD9A80916B0090916C008E9709F02E
:100A000046C080915D0190915E01019741F4809113
:100A10006B0190916C01019711F41092E2008091AA
:100A20005F0190916001019741F480916D01909177
:100A30006E01019711F41092E20080916301909190
:100A40006401019749F480917101909172010197BD
:100A500019F481E08093E20080916101909162013C
:100A60000197A9F480916F0190917001019779F439
:100A70001092E2000CC0099709F022CD17CDEF2BA0
:100A800009F4A0CEE3CE672B09F401CF63CFDF9149
:100A9000CF910895919A26B3822F817090E0909320
:100AA000FE008093FD008130910509F029C18091FD
:100AB000C40081115DC18091C5009091C6009C0168
:100AC000295031092230310528F41092C6001092C5
:100AD000C5002EC04297039738F481E090E09093D0
:100AE000C6008093C50042C08091C5009091C600A9
:100AF0004B970897E8F482E090E09093C6008093CB
:100B0000C50010926C0010926B0010927900109248
:100B100078001092A1001092A0001092E6001092AE
:100B2000E50020E030E0909318018093170182C027
:100B30008091C5009091C600893E9340BCF0109210
:100B40006C0010926B001092790010927800109255
:100B5000A1001092A0001092E6001092E500109201
:100B6000E200109218011092170173C020916B00DF
:100B700030916C00F901EE0FFF1FE95EFE4F80918E
:100B8000C5009091C600918380832830310509F01B
:100B900051C0E7E1F1E0208931898091A000909176
:100BA000A100822B932B2481358100243695279533
:100BB0000794369527950794322F202D822B932B5F
:100BC00026813781220F331F22953295307F3227BD
:100BD000207F3227822B932B2085318522953295D9
:100BE000307F3227207F3227822B932B228533853B
:100BF000220F331F220F331F220F331F822B932B01
:100C000024853585220F331F220F331F822B932B10
:100C100026853785220F331F822B932B9093A100BB
:100C20008093A000009709F09AC01092A300109240
:100C3000A20095C04091A0005091A1008091E900D0
:100C40009091EA004817590721F4283031050CF03B
:100C5000FCDB81E08093C4001092ED001092C6008E
:100C60001092C50010929600109295008091190183
:100C700090911A01019711F580911B0190911C012F
:100C8000892BE1F480916B0090916C000297B1F494
:100C90008091A2009091A30001969093A30080936D
:100CA000A2002091E9003091EA008217930731F405
:100CB0009093A1008093A000C19AAD9A80916B009F
:100CC00090916C00019690936C0080936B008091E2
:100CD000FD009091FE008130910509F449C010C0DB
:100CE00080919E0090919F00019690939F00809329
:100CF0009E008091FD009091FE00892BE9F02DC0AF
:100D0000892B59F58091ED00811116C0C198AD98DD
:100D100081E08093ED001092C40010929F00109229
:100D20009E0010927900109278008091FD009091C1
:100D3000FE00892B29F011C08091ED00813069F40B
:100D400010929F0010929E008091C5009091C60065
:100D500001969093C6008093C500919808952091C4
:100D6000E9003091EA008217930709F072CF70CF43
:100D70008091C400813009F4B3CFEFCF5058BB2726
:100D8000AA270ED0B4C0A5D030F0AAD020F031F4FC
:100D90009F3F11F41EF49AC00EF4E095E7FB90C05B
:100DA000E92FB6D080F3BA17620773078407950757
:100DB00018F071F49EF5CEC00EF4E0950B2EBA2F0C
:100DC000A02D0B01B90190010C01CA01A001112451
:100DD000FF27591B99F0593F50F4503E68F11A16FD
:100DE000F040A22F232F342F4427585FF3CF46958E
:100DF00037952795A795F0405395C9F77EF41F16B0
:100E0000BA0B620B730B840BBAF09150A1F0FF0F79
:100E1000BB1F661F771F881FC2F70EC0BA0F621F65
:100E2000731F841F48F4879577956795B795F79555
:100E30009E3F08F0B3CF9395880F08F09927EE0FE7
:100E4000979587950895E89409C097FB3EF490958F
:100E50008095709561957F4F8F4F9F4F9923A9F093
:100E6000F92F96E9BB279395F69587957795679522
:100E7000B795F111F8CFFAF4BB0F11F460FF1BC066
:100E80006F5F7F4F8F4F9F4F16C0882311F096E9F9
:100E900011C0772321F09EE8872F762F05C06623A7
:100EA00071F096E8862F70E060E02AF09A95660F60
:100EB000771F881FDAF7880F9695879597F9089519
:100EC00097F99F6780E870E060E008959FEF80ECFD
:100ED000089500240A9416161706180609060895A0
:100EE00000240A9412161306140605060895092E06
:100EF0000394000C11F4882352F0BB0F40F4BF2B75
:100F000011F460FF04C06F5F7F4F8F4F9F4F0895B4
:100F100057FD9058440F551F59F05F3F71F04795AA
:100F2000880F97FB991F61F09F3F79F0879508958F
:100F3000121613061406551FF2CF4695F1DF08C0AE
:100F4000161617061806991FF1CF869571056105CB
:100F500008940895E894BB2766277727CB0197F973
:100F6000089566D008F48FEF08950BD0C0CFB1DF9D
:100F700028F0B6DF18F0952309F0A2CFA7CF1124EF
:100F8000EACFC6DFA0F3959FD1F3950F50E0551F30
:100F9000629FF001729FBB27F00DB11D639FAA27CE
:100FA000F00DB11DAA1F649F6627B00DA11D661F1D
:100FB000829F2227B00DA11D621F739FB00DA11D3E
:100FC000621F839FA00D611D221F749F3327A00DF8
:100FD000611D231F849F600D211D822F762F6A2F94
:100FE00011249F5750408AF0E1F088234AF0EE0F19
:100FF000FF1FBB1F661F771F881F91505040A9F726
:101000009E3F510570F05CCFA6CF5F3FECF3983E5A
:10101000DCF3869577956795B795F795E7959F5F8C
:10102000C1F7FE2B880F911D9695879597F9089526
:10103000990F0008550FAA0BE0E8FEEF16161706E9
:10104000E807F907C0F012161306E407F50798F051
:10105000621B730B840B950B39F40A2661F0232B6A
:10106000242B252B21F408950A2609F4A140A695E6
:0C1070008FEF811D811D0895F894FFCFC3
:02107C0005006D
:00000001FF
