:1000000012C02CC02BC02AC029C028C03CC026C0AA
:1000100025C024C023C022C021C020C01FC01EC0D4
:100020001DC01CC01BC011241FBECFE5D4E0DEBF25
:10003000CDBF10E0A0E6B0E0ECECF1E002C005902E
:100040000D92A236B107D9F722E0A2E6B0E001C0D6
:100050001D92AF32B207E1F73CD0B6C0D1CF87B91D
:10006000369A3699FECF84B125B190E0922B95B99E
:1000700084B984B195B10895E199FECF9FBB8EBB41
:10008000E09A8DB308951F920F920FB60F9211242C
:100090002F938F939F9381E082BB80912D0290914B
:1000A0002E02019690932E0280932D022FEF84E36F
:1000B0009CE0215080409040E1F700C000008EEFAE
:1000C00082BB9F918F912F910F900FBE0F901F9029
:1000D0001895379A87B117B83E9A87B18F6D87B94F
:1000E00086B1866286B9479A14BA8AE387BB18BA82
:1000F0008FEF81BB15BA12BA8EB588608EBD89B7F5
:10010000806189BF8AE78BBD82E18ABD8EB584603C
:100110008EBD83E190E09093D3008093D2008DE96F
:1001200090E09093B1008093B00082E090E0A4DF73
:1001300090E09093C6008093C50083E090E09CDF40
:1001400090E0909361008093600088E090E094DFFD
:1001500090E090936E0080936D008B9734F089E26D
:1001600090E090936E0080936D0089E090E084DFD2
:1001700090E09093E8008093E7008B9734F089E259
:1001800090E09093E8008093E70080E190E074DFD6
:1001900090E09093D3008093D2008138910524F0B1
:1001A0001092D3001092D20080E059DF9093650046
:1001B0008093640081E053DF90936300809362003A
:0C01C000789481E082BBFECFF894FFCF62
:0201CC0005002C
:00000001FF
