:1000000012C02CC02BC02AC029C028C03CC026C0AA
:1000100025C024C023C022C021C020C01FC01EC0D4
:100020001DC01CC01BC011241FBECFE5D4E0DEBF25
:10003000CDBF10E0A0E6B0E0E8E5FCE002C005902E
:100040000D92A236B107D9F722E0A2E6B0E001C0D6
:100050001D92A431B207E1F742D0FCC5D1CF87B9D8
:10006000369A3699FECF84B125B190E0922B95B99E
:1000700084B984B195B10895E199FECF9FBB8EBB41
:10008000E09A8DB308951F920F920FB60F9211242C
:100090002F933F934F935F936F937F938F939F9390
:1000A000AF93BF93EF93FF9380911202909113024D
:1000B0000196909313028093120250D4FF91EF9116
:1000C000BF91AF919F918F917F916F915F914F9170
:1000D0003F912F910F900FBE0F901F901895379A58
:1000E00087B117B83E9A87B18F6D87B986B18660A0
:1000F00086B914BA8AE387BB18BA8FEF81BB15BAE9
:1001000012BA8EB588608EBD89B7806189BF84E6DA
:1001100090E09BBD8ABD8EB582608EBD83E190E08C
:100120009093BC008093BB0089E190E09093A30082
:100130008093A20083E090E09FDF90E090936100C5
:100140008093600088E090E097DF90E090937000EB
:1001500080936F008B9734F089E290E09093700069
:1001600080936F0089E090E087DF90E09093D1006A
:100170008093D0008B9734F089E290E09093D10087
:100180008093D00078948091120290911302803174
:100190009742D4F0F89480E062DF9093110280934C
:1001A0001002C39A80E05BDF909365008093640047
:1001B000789486E054DF9093A6008093A500C398BE
:1001C000109213021092120287E049DF90936300AD
:1001D000809362008DE49FE222E0815090402040B5
:1001E000E1F700C0D0CFCF93DF938091680090916A
:1001F00069000D9741F5C8EED0E02A8D3B8D8091C6
:10020000B7009091B800822B932B2C893D89220F47
:10021000331F220F331F220F331F822B932B2E8964
:100220003F89220F331F220F331F822B932B288DE0
:10023000398D220F331F822B932B9093B80080931C
:10024000B700C19AC49A80916800909169000E9796
:1002500061F48091D2009091D300019721F08091B8
:10026000B2008230B1F4C19AC49A80916800909132
:1002700069008D3091050CF46EC3469711F4C19A54
:10028000C49A80916800909169004F9711F4C19AC7
:10029000AD9A8091680090916900889711F4C19A95
:1002A000AD9A8091680090916900C19711F4C19A4C
:1002B000AD9A8091680090916900CA9711F4C19A33
:1002C000AD9A80916800909169008334910511F492
:1002D000C19AAD9A80916800909169008C34910523
:1002E00059F4C19AAD9A80916800909169008C345C
:1002F000910511F4C19AAD9A8091680090916900BE
:100300008535910511F4C19AAD9A8091680090915C
:1003100069008E35910511F4C19AAD9A8091B700AC
:100320009091B8008230910509F462C01CF4892BC9
:1003300049F011C38330910509F477C00E9709F491
:10034000A9C209C380916800909169000D9711F4CA
:10035000C19AC49A80916800909169000E9761F4E7
:100360008091D2009091D300019721F08091B2004A
:10037000823091F4C19AAD9A8091680090916900A1
:10038000469711F4C19AAD9A8091680090916900E6
:100390004F9711F4C19AAD9A8091680090916900CD
:1003A000889711F4C19AAD9A809168009091690084
:1003B000C19711F4C19AAD9A80916800909169003B
:1003C000CA9711F4C19AAD9A809168009091690022
:1003D0008334910511F4C19AAD9A8091680090918F
:1003E00069008C34910509F0B6C2C19AAD9AB3C2C6
:1003F00080916800909169000D9711F4C19AAD9AAF
:1004000080916800909169000E9709F0A4C28091D4
:10041000D2009091D300019729F08091B2008230F0
:1004200009F099C2C19AAD9A96C2809168009091E4
:1004300069000D9711F4C19AAD9A8091680090916E
:1004400069000E9761F48091D2009091D3000197DA
:1004500021F08091B200823091F4C19AAD9A8091DE
:10046000680090916900469711F4C19AAD9A809105
:100470006800909169004F9711F4C19AAD9A8091EC
:10048000680090916900889711F4C19AAD9A8091A3
:10049000680090916900C19711F4C19AAD9A80915A
:1004A000680090916900CA9711F4C19AAD9A809141
:1004B0006800909169008334910511F4C19AAD9A56
:1004C00080916800909169008C34910511F4C19A73
:1004D000AD9A80916800909169008535910511F47D
:1004E000C19AAD9A80916800909169008F3591050D
:1004F00011F4C19AAD9A80916800909169009C01B5
:100500002E5031092830310520F525E130E0281B37
:10051000390B8091A2009091A30002C09595879518
:100520002A95E2F7817099272091790030917A001D
:10053000822B932B90937A0080937900019711F48A
:10054000C19AAD9A8091790090917A00892B09F433
:10055000C19880916800909169004E97E1F4809174
:10056000B200E82FE170F0E08091790090917A007C
:10057000E82BF92BF0937A00E0937900E130F10554
:1005800009F0E1C1C19AAD9A8091790090917A0009
:10059000892B09F4C1988091680090916900829735
:1005A0000297D0F480919B00A82FA170B0E08091B9
:1005B000790090917A00A82BB92BB0937A00A09380
:1005C0007900119711F4C19AAD9A809179009091B8
:1005D0007A00892B09F4C198809168009091690094
:1005E00084970497D8F48091B200482F417050E06E
:1005F0008091790090917A00482B592B50937A0082
:10060000409379004130510511F4C19AAD9A80911F
:10061000790090917A00892B09F4C1988091680043
:10062000909169008797E1F480910D02682F6170C5
:1006300070E08091790090917A00682B792B70930B
:100640007A00609379006130710509F080C1C19A28
:10065000AD9A8091790090917A00892B09F4C19824
:100660002091680030916900C9018A97079730F599
:100670008091640090916500925040E350E0BA018F
:10068000621B730B02C0959587956A95E2F781709E
:1006900099272091790030917A00822B932B9093A7
:1006A0007A0080937900019711F4C19AAD9A8091F4
:1006B000790090917A00892B09F4C19880916800A3
:1006C000909169009C01235331092730310520F5B1
:1006D00029E330E0281B390B809110029091110220
:1006E00002C0959587952A95E2F781709927209108
:1006F000790030917A00822B932B90937A0080932B
:100700007900019711F4C19AAD9A80917900909186
:100710007A00892B09F4C198809168009091690052
:100720009C012C5331092730310520F522E430E0BB
:10073000281B390B809110029091110202C09595EF
:1007400087952A95E2F78170992720917900309159
:100750007A00822B932B90937A00809379000197F3
:1007600011F4C19AAD9A8091790090917A00892B09
:1007700009F4C19880916800909169009C0125540A
:1007800031092730310510F52BE430E0281B390BF7
:1007900089E190E002C0959587952A95E2F78170EE
:1007A00099272091790030917A00822B932B909396
:1007B0007A0080937900019711F4C19AAD9A8091E3
:1007C000790090917A00892B09F4C19820916800F2
:1007D00030916900C9018E549109089750F58091B4
:1007E000A5009091A600AC01440F551F840F951FE2
:1007F00044E550E0BA01621B730B02C095958795E2
:100800006A95E2F7817099272091790030917A00FA
:10081000822B932B90937A0080937900019711F4A7
:10082000C19AAD9A8091790090917A00892B09F450
:10083000C19880916800909169009C01265531090A
:100840002930310508F087C02DE530E0281B390B31
:10085000809162009091630002C0959587952A95DA
:10086000E2F7817099272091790030917A00822BEC
:10087000932B90937A0080937900019711F4C19A99
:10088000AD9A8091790090917A00892B09F063C02C
:10089000C19861C080916800909169000D9711F432
:1008A000C19AAD9A80916800909169004E9711F4B9
:1008B000C19AAD9A80916800909169008D9711F46A
:1008C000C19AAD9A80916800909169008E9709F065
:1008D00042C080912E0190912F01019741F48091A7
:1008E0003C0190913D01019711F41092B20080916A
:1008F000300190913101019741F480913E01909136
:100900003F01019711F41092B2008091340190914F
:100910003501019749F4809142019091430101977B
:1009200019F481E08093B2008091320190913301FB
:10093000019789F48091400190914101019759F408
:100940001092B20008C0EF2B09F424CE67CE672BBB
:1009500009F485CEE1CEDF91CF910895909A86B3C8
:10096000282F217030E03093CF002093CE0086B343
:10097000847090E09093B5008093B40021303105ED
:1009800009F029C18091A40081115EC18091A70066
:100990009091A8009C01255031092330310528F49D
:1009A0001092A8001092A7002EC00A97039738F45F
:1009B00081E090E09093A8008093A70042C08091CE
:1009C000A7009091A8000E970397E8F482E090E0CA
:1009D0009093A8008093A70010926900109268007D
:1009E00010926E0010926D0010928400109283009D
:1009F0001092B8001092B70020E030E09093E90028
:100A00008093E80082C08091A7009091A800893E61
:100A10009340BCF0109269001092680010926E0032
:100A200010926D0010928400109283001092B80012
:100A30001092B7001092B2001092E9001092E800F4
:100A400073C02091680030916900F901EE0FFF1F1B
:100A5000E851FF4F8091A7009091A8009183808377
:100A60002830310509F051C0E8EEF0E020893189E5
:100A70008091830090918400822B932B2481358177
:100A80000024369527950794369527950794322F9D
:100A9000202D822B932B26813781220F331F229505
:100AA0003295307F3227207F3227822B932B20856F
:100AB000318522953295307F3227207F3227822B55
:100AC000932B22853385220F331F220F331F220FD2
:100AD000331F822B932B24853585220F331F220F42
:100AE000331F822B932B26853785220F331F822BB2
:100AF000932B9093840080938300009709F09BC010
:100B0000109286001092850096C04091830050910B
:100B100084008091BB009091BC004817590721F4D4
:100B2000283031050CF05FDB81E08093A400109247
:100B3000BF001092A8001092A70010927A001092A5
:100B400079008091EA009091EB00019711F5809176
:100B5000EC009091ED00892BE1F480916800909178
:100B600069000297B1F4809185009091860001960A
:100B700090938600809385002091BB003091BC004B
:100B80008217930731F49093840080938300C19A75
:100B9000C49A8091680090916900019690936900D1
:100BA000809368002091CE003091CF002130310534
:100BB00009F44AC010C08091810090918200019692
:100BC00090938200809381008091CE009091CF001D
:100BD000892BF1F02EC0232B61F58091BF0081118C
:100BE00017C0C198C498C59881E08093BF00109247
:100BF000A400109282001092810010926E00109258
:100C00006D008091CE009091CF00892B29F011C00A
:100C10008091BF00813069F41092820010928100AF
:100C20008091A7009091A80001969093A8008093CE
:100C3000A700909808952091BB003091BC008217C6
:100C4000930709F071CF6FCF8091A400813009F430
:080C5000B2CFEFCFF894FFCF03
:020C5800050095
:00000001FF
