S00F00004444532D322E312E737265637C
S113000012C02CC02BC02AC029C028C02FC026C0B3
S113001025C024C023C022C021C020C01FC01EC0D0
S11300201DC01CC01BC011241FBECFE5D4E0DEBF21
S1130030CDBF10E0A0E6B0E0E8EEFBE002C0059022
S11300400D92A236B107D9F722E0A2E6B0E001C0D2
S11300501D92A631B207E1F735D0C4C5D1CFE199DD
S1130060FECF9FBB8EBBE09A8DB308951F920F9273
S11300700FB60F9211242F933F934F935F936F9377
S11300807F938F939F93AF93BF93EF93FF9380914D
S11300901402909115020196909315028093140214
S11300A021D4FF91EF91BF91AF919F918F917F9157
S11300B06F915F914F913F912F910F900FBE0F90D1
S11300C01F901895379A87B117B83E9A87B18F6DEC
S11300D087B986B186B914BA8AE387BB18BA8FEF99
S11300E081BB15BA12BA8EB588608EBD89B780619E
S11300F089BF84E690E09BBD8ABD8EB582608EBDCB
S113010083E190E09093BE008093BD0089E190E08C
S11301109093A3008093A20083E090E0A0DF90E09E
S1130120909361008093600088E090E098DF90E015
S11301309093700080936F008B9734F089E290E085
S11301409093700080936F0089E090E088DF90E0E6
S11301509093D3008093D2008B9734F089E290E09F
S11301609093D3008093D2007894FFCFCF93DF9302
S113017080916800909169000D9741F5CAEED0E036
S11301802A8D3B8D8091B9009091BA00822B932BDC
S11301902C893D89220F331F220F331F220F331F57
S11301A0822B932B2E893F89220F331F220F331F5B
S11301B0822B932B288D398D220F331F822B932B67
S11301C09093BA008093B900C19AC49A8091680050
S11301D0909169000E9761F48091D4009091D500BC
S11301E0019721F08091B4008230B1F4C19AC49A8D
S11301F080916800909169008D3091050CF46FC373
S1130200469711F4C19AC49A80916800909169004C
S11302104F9711F4C19AAD9A80916800909169004A
S1130220889711F4C19AAD9A809168009091690001
S1130230C19711F4C19AAD9A8091680090916900B8
S1130240CA9711F4C19AAD9A80916800909169009F
S11302508334910511F4C19AAD9A8091680090910C
S113026069008C34910559F4C19AAD9A8091680063
S1130270909169008C34910511F4C19AAD9A8091E2
S11302806800909169008535910511F4C19AAD9A81
S113029080916800909169008E35910511F4C19A9E
S11302A0AD9A8091B9009091BA008230910509F419
S11302B062C01CF4892B49F012C38330910509F400
S11302C077C00E9709F4AAC20AC38091680090917E
S11302D069000D9711F4C19AC49A809168009091B5
S11302E069000E9761F48091D4009091D500019734
S11302F021F08091B400823091F4C19AAD9A80913A
S1130300680090916900469711F4C19AAD9A809162
S11303106800909169004F9711F4C19AAD9A809149
S1130320680090916900889711F4C19AAD9A809100
S1130330680090916900C19711F4C19AAD9A8091B7
S1130340680090916900CA9711F4C19AAD9A80919E
S11303506800909169008334910511F4C19AAD9AB3
S113036080916800909169008C34910509F0B7C2BE
S1130370C19AAD9AB4C280916800909169000D97BA
S113038011F4C19AAD9A80916800909169000E971A
S113039009F0A5C28091D4009091D500019729F06D
S11303A08091B400823009F09AC2C19AAD9A97C282
S11303B080916800909169000D9711F4C19AAD9AEB
S11303C080916800909169000E9761F48091D40047
S11303D09091D500019721F08091B400823091F47E
S11303E0C19AAD9A8091680090916900469711F482
S11303F0C19AAD9A80916800909169004F9711F469
S1130400C19AAD9A8091680090916900889711F41F
S1130410C19AAD9A8091680090916900C19711F4D6
S1130420C19AAD9A8091680090916900CA9711F4BD
S1130430C19AAD9A809168009091690083349105C6
S113044011F4C19AAD9A80916800909169008C343E
S1130450910511F4C19AAD9A809168009091690058
S11304608535910511F4C19AAD9A809168009091F7
S113047069008F35910531F4C19AAD9A1092B2009A
S11304801092B10080916800909169009C012E50F7
S113049031092830310520F525E130E0281B390BDE
S11304A08091A2009091A30002C0959587952A950A
S11304B0E2F7817099272091790030917A00822B9C
S11304C0932B90937A0080937900019711F4C19A49
S11304D0AD9A8091790090917A00892B09F4C198A2
S11304E080916800909169004E97E1F48091B40086
S11304F0E82FE170F0E08091790090917A00E82B88
S1130500F92BF0937A00E0937900E130F10509F0DA
S1130510DEC1C19AAD9A8091790090917A00892BBD
S113052009F4C198809168009091690082970297BC
S1130530D0F480919B00A82FA170B0E08091790045
S113054090917A00A82BB92BB0937A00A0937900EC
S1130550119711F4C19AAD9A8091790090917A0023
S1130560892B09F4C198809168009091690084975F
S11305700497D8F48091B400482F417050E08091E2
S1130580790090917A00482B592B50937A0040932C
S113059079004130510511F4C19AAD9A80917900E6
S11305A090917A00892B09F4C19880916800909108
S11305B069008797E1F480910F02682F617070E001
S11305C08091790090917A00682B792B70937A004E
S11305D0609379006130710509F07DC1C19AAD9ACB
S11305E08091790090917A00892B09F4C198209127
S11305F0680030916900C9018A97079730F58091A6
S1130600640090916500925040E350E0BA01621B8F
S1130610730B02C0959587956A95E2F781709927C7
S11306202091790030917A00822B932B90937A0059
S113063080937900019711F4C19AAD9A8091790061
S113064090917A00892B09F4C19880916800909167
S113065069009C01235331092730310520F529E332
S113066030E0281B390B809112029091130202C0D2
S1130670959587952A95E2F78170992720917900BD
S113068030917A00822B932B90937A008093790097
S1130690019711F4C19AAD9A8091790090917A00F2
S11306A0892B09F4C19880916800909169009C019C
S11306B02C5331092730310520F522E430E0281B82
S11306C0390B809112029091130202C0959587957F
S11306D02A95E2F7817099272091790030917A0068
S11306E0822B932B90937A0080937900019711F4D5
S11306F0C19AAD9A8091790090917A00892B09F47E
S1130700C19880916800909169009C012554310939
S11307102730310510F52BE430E0281B390B8AE132
S113072090E002C0959587952A95E2F78170992704
S11307302091790030917A00822B932B90937A0048
S113074080937900019711F4C19AAD9A8091790050
S113075090917A00892B09F4C19820916800309116
S11307606900C9018E549109089730F58AE190E037
S11307709093A6008093A50044E550E0BA01621B63
S1130780730B02C0959587956A95E2F78170992756
S11307902091790030917A00822B932B90937A00E8
S11307A080937900019709F4C19A8091790090911E
S11307B07A00892B09F4C19820916800309169006E
S11307C0C90186559109099708F089C08BE190E029
S11307D090936300809362004EE550E0BA01621B7F
S11307E0730B02C0959587956A95E2F781709927F6
S11307F02091790030917A00822B932B90937A0088
S113080080937900019709F4C19A809179009091BD
S11308107A00892B09F063C0C19861C08091680097
S1130820909169000D9711F4C19AAD9A8091680076
S1130830909169004E9711F4C19AAD9A8091680025
S1130840909169008D9711F4C19AAD9A80916800D6
S1130850909169008E9709F042C080913001909187
S11308603101019741F480913E0190913F0101973C
S113087011F41092B40080913201909133010197E8
S113088041F48091400190914101019711F410923B
S1130890B4008091360190913701019749F4809119
S11308A0440190914501019719F481E08093B400CB
S11308B08091340190913501019789F4809142012E
S11308C090914301019759F41092B40008C0EF2BA2
S11308D009F427CE6ACE672B09F488CEE4CEDF91E3
S11308E0CF910895909A86B3282F217030E03093E9
S11308F0D1002093D00086B3847090E09093B70029
S11309008093B6002130310509F02DC18091A400F7
S1130910811162C18091A7009091A8009C0125508B
S113092031092330310528F41092A8001092A70051
S113093032C00A97039738F481E090E09093A800BE
S11309408093A70046C08091A7009091A8000E97BD
S1130950039708F582E090E09093A8008093A700A5
S113096010926900109268001092B2001092B100C7
S113097010926E0010926D00109284001092830009
S11309801092BA001092B90020E030E09093EB008E
S11309908093EA0082C08091A7009091A800893ECC
S11309A09340BCF0109269001092680010926E009F
S11309B010926D0010928400109283001092BA007D
S11309C01092B9001092B4001092EB001092EA0059
S11309D073C02091680030916900F901EE0FFF1F88
S11309E0E651FF4F8091A7009091A80091838083E6
S11309F02830310509F051C0EAEEF0E02089318950
S1130A008091830090918400822B932B24813581E3
S1130A100024369527950794369527950794322F09
S1130A20202D822B932B26813781220F331F229571
S1130A303295307F3227207F3227822B932B2085DB
S1130A40318522953295307F3227207F3227822BC1
S1130A50932B22853385220F331F220F331F220F3E
S1130A60331F822B932B24853585220F331F220FAE
S1130A70331F822B932B26853785220F331F822B1E
S1130A80932B9093840080938300009709F09BC07C
S1130A90109286001092850096C040918300509178
S1130AA084008091BD009091BE004817590721F43D
S1130AB0283031050CF05ADB81E08093A4001092B9
S1130AC0C1001092A8001092A70010927A00109210
S1130AD079008091EC009091ED00019711F58091DF
S1130AE0EE009091EF00892BE1F4809168009091E1
S1130AF069000297B1F48091850090918600019677
S1130B0090938600809385002091BD003091BE00B3
S1130B108217930731F49093840080938300C19AE1
S1130B20C49A80916800909169000196909369003D
S1130B30809368002091D0003091D100213031059C
S1130B4009F44AC010C080918100909182000196FE
S1130B5090938200809381008091D0009091D10085
S1130B60892BF1F02EC0232B61F58091C1008111F6
S1130B7017C0C198C498C59881E08093C1001092B1
S1130B80A400109282001092810010926E001092C4
S1130B906D008091D0009091D100892B29F011C073
S1130BA08091C100813069F410928200109281001A
S1130BB08091A7009091A80001969093A80080933B
S1130BC0A700909808952091BD003091BE0082172F
S1130BD0930709F071CF6FCF8091A400813009F49D
S10B0BE0B2CFEFCFF894FFCF70
S1050BE8050002
S9030000FC
