S00F00004444532D322E312E737265637C
S113000012C02CC02BC02AC029C028C03CC026C0A6
S113001025C024C023C022C021C020C01FC01EC0D0
S11300201DC01CC01BC011241FBECFE5D4E0DEBF21
S1130030CDBF10E0A0E6B0E0E4E1FBE002C0059033
S11300400D92A236B107D9F722E0A2E6B0E001C0D2
S11300501D92A031B207E1F742D05AC5D1CF87B97A
S1130060369A3699FECF84B125B190E0922B95B99A
S113007084B984B195B10895E199FECF9FBB8EBB3D
S1130080E09A8DB308951F920F920FB60F92112428
S11300902F933F934F935F936F937F938F939F938C
S11300A0AF93BF93EF93FF9380910E0290910F0251
S11300B0019690930F0280930E02B1D3FF91EF91BA
S11300C0BF91AF919F918F917F916F915F914F916C
S11300D03F912F910F900FBE0F901F901895379A54
S11300E087B117B83E9A87B18F6D87B986B186609C
S11300F086B914BA8AE387BB18BA8FEF81BB15BAE5
S113010012BA8EB588608EBD89B7806189BF84E6D6
S113011090E09BBD8ABD8EB582608EBD83E190E088
S11301209093BA008093B90089E190E09093A30082
S11301308093A20083E090E09FDF90E090936100C1
S11301408093600088E090E097DF90E090937000E7
S113015080936F008B9734F089E290E09093700065
S113016080936F0089E090E087DF90E09093CF0068
S11301708093CE008B9734F089E290E09093CF0087
S11301808093CE007894919A80E069DF9093670021
S11301908093660087E063DF90936500809364003A
S11301A086E05DDF90936300809362009198EBCFCB
S11301B0CF93DF9380916A0090916B008D3091050D
S11301C009F01EC3C6EED0E02A8D3B8D8091B500A8
S11301D09091B600822B932B2C893D89220F331FDB
S11301E0220F331F220F331F822B932B2E893F891B
S11301F0220F331F220F331F822B932B288D398D0F
S1130200220F331F822B932B9093B6008093B5005B
S113021008C0C19AAD9A80916A0090916B000D97C5
S113022011F4C19AC49A80916A0090916B000E9760
S113023061F48091D0009091D100019721F08091D8
S1130240B0008230B1F4C19AAD9A80916A00909165
S11302506B008D3091050CF4DFC2469711F4C19AFE
S1130260AD9A80916A0090916B004F9711F4C19AF6
S1130270AD9A80916A0090916B00889711F4C19AAD
S1130280AD9A80916A0090916B00C19711F4C19A64
S1130290AD9A80916A0090916B00CA9711F4C19A4B
S11302A0AD9A80916A0090916B008334910511F4AA
S11302B0C19AAD9A80916A0090916B008C3491053B
S11302C059F4C19AAD9A80916A0090916B008C3474
S11302D0910511F4C19AAD9A80916A0090916B00D6
S11302E08535910511F4C19AAD9A80916A00909177
S11302F06B008E35910511F4C19AAD9A8091B500C9
S11303009091B6008230910509F46AC01CF4892BDF
S113031049F082C28330910509F47FC00E9709F435
S113032016C27AC280916A0090916B00099711F409
S1130330C19AAD9A80916A0090916B000D9711F467
S1130340C19AAD9A80916A0090916B000E9761F406
S11303508091D0009091D100019721F08091B0005C
S1130360823091F4C19AAD9A80916A0090916B00A9
S1130370469711F4C19AAD9A80916A0090916B00EE
S11303804F9711F4C19AAD9A80916A0090916B00D5
S1130390889711F4C19AAD9A80916A0090916B008C
S11303A0C19711F4C19AAD9A80916A0090916B0043
S11303B0CA9711F4C19AAD9A80916A0090916B002A
S11303C08334910511F4C19AAD9A80916A00909199
S11303D06B008C34910509F01FC2C19AAD9A1CC2FE
S11303E080916A0090916B000D9711F4C19AAD9AB7
S11303F080916A0090916B000E9709F00DC2809174
S1130400D0009091D100019729F08091B000823002
S113041009F002C2C19AAD9AFFC180916A0090911D
S11304206B000D9711F4C19AAD9A80916A00909176
S11304306B000E9761F48091D0009091D1000197E8
S113044021F08091B000823091F4C19AAD9A8091EC
S11304506A0090916B00469711F4C19AAD9A80910D
S11304606A0090916B004F9711F4C19AAD9A8091F4
S11304706A0090916B00889711F4C19AAD9A8091AB
S11304806A0090916B00C19711F4C19AAD9A809162
S11304906A0090916B00CA9711F4C19AAD9A809149
S11304A06A0090916B008334910511F4C19AAD9A5E
S11304B080916A0090916B008C34910511F4C19A7B
S11304C0AD9A80916A0090916B009C012E50310985
S11304D02830310520F525E130E0281B390B8091C7
S11304E0A2009091A30002C0959587952A95E2F702
S11304F0817099272091790030917A00822B932B77
S113050090937A0080937900019711F4C19AAD9A7F
S11305108091790090917A00892B09F4C198809197
S11305206A0090916B004E97E1F48091B000E82F3F
S1130530E170F0E08091790090917A00E82BF92B3A
S1130540F0937A00E0937900E130F10509F05CC1A1
S1130550C19AAD9A8091790090917A00892B09F41F
S1130560C19880916A0090916B0082970297D0F4B1
S113057080919B00A82FA170B0E0809179009091A8
S11305807A00A82BB92BB0937A00A0937900119725
S113059011F4C19AAD9A8091790090917A00892BD7
S11305A009F4C19880916A0090916B008497049734
S11305B0D8F48091B000482F417050E080917900C8
S11305C090917A00482B592B50937A0040937900EC
S11305D04130510511F4C19AAD9A809179009091FE
S11305E07A00892B09F4C19880916A0090916B007C
S11305F08797E1F480910B02682F617070E080911D
S1130600790090917A00682B792B70937A0060932B
S113061079006130710509F0FBC0C19AAD9A8091EF
S1130620790090917A00892B09F4C19820916A008D
S113063030916B00C901C397069760F580916600FD
S11306409091670099230CF4039695958795959559
S1130650879549E350E0BA01621B730B02C095957C
S113066087956A95E2F781709927209179003091F6
S11306707A00822B932B90937A00809379000197D0
S113068011F4C19AAD9A8091790090917A00892BE6
S113069009F4C19880916A0090916B009C012C53DD
S11306A031092730310520F522E430E0281B390BCD
S11306B0809168009091690002C0959587952A956C
S11306C0E2F7817099272091790030917A00822B8A
S11306D0932B90937A0080937900019711F4C19A37
S11306E0AD9A8091790090917A00892B09F4C19890
S11306F080916A0090916B009C0125543109273048
S1130700310508F089C02BE430E0281B390B89E15E
S113071090E002C0959587952A95E2F78170992714
S11307202091790030917A00822B932B90937A0058
S113073080937900019711F4C19AAD9A8091790060
S113074090917A00892B09F067C0C19865C08091A7
S11307506A0090916B000D9711F4C19AAD9A809143
S11307606A0090916B004E9711F4C19AAD9A8091F2
S11307706A0090916B008D9711F4C19AAD9A8091A3
S11307806A0090916B008E9709F046C080912C010D
S113079090912D01019741F480913A0190913B0190
S11307A0019711F41092B00080912E0190912F01C5
S11307B0019741F480913C0190913D01019711F41E
S11307C01092B0008091320190913301019749F465
S11307D08091400190914101019719F481E0809347
S11307E0B00080913001909131010197A9F480917A
S11307F03E0190913F01019779F41092B0000CC032
S1130800099709F010CD05CDEF2B09F4A9CEECCE54
S1130810672B09F40ACF6CCFDF91CF91089586B38B
S1130820282F217030E03093CD002093CC0086B384
S1130830847090E09093B3008093B200213031052E
S113084009F029C18091A40081115CC18091A500A7
S11308509091A6009C01255031092330310528F4DC
S11308601092A6001092A5002EC00A97029738F4A1
S113087081E090E09093A6008093A50042C080910F
S1130880A5009091A6000F974497E8F482E090E0C9
S11308909093A6008093A50010926B0010926A00BA
S11308A010926E0010926D001092840010928300DA
S11308B01092B6001092B50020E030E09093E7006B
S11308C08093E60082C08091A5009091A600893EA5
S11308D09340BCF010926B0010926A0010926E006C
S11308E010926D0010928400109283001092B60052
S11308F01092B5001092B0001092E7001092E6003A
S113090073C020916A0030916B00F901EE0FFF1F54
S1130910EA51FF4F8091A5009091A60091838083B6
S11309202830310509F051C0E6EEF0E02089318924
S11309308091830090918400822B932B24813581B4
S11309400024369527950794369527950794322FDA
S1130950202D822B932B26813781220F331F229542
S11309603295307F3227207F3227822B932B2085AC
S1130970318522953295307F3227207F3227822B92
S1130980932B22853385220F331F220F331F220F0F
S1130990331F822B932B24853585220F331F220F7F
S11309A0331F822B932B26853785220F331F822BEF
S11309B0932B9093840080938300009709F099C04F
S11309C0109286001092850094C04091830050914B
S11309D084008091B9009091BA004817590721F416
S11309E0283031050CF0E4DB81E08093A400109200
S11309F0BD001092A6001092A50010927A001092E9
S1130A0079008091E8009091E900019711F58091B7
S1130A10EA009091EB00892BE1F480916A009091B7
S1130A206B000297B1F48091850090918600019645
S1130A3090938600809385002091B9003091BA008C
S1130A408217930731F49093840080938300C19AB2
S1130A50C49A80916A0090916B00019690936B0008
S1130A6080936A002091CC003091CD002130310573
S1130A7009F448C010C080918100909182000196D1
S1130A8090938200809381008091CC009091CD005E
S1130A90892BE9F00895232BD1F58091BD008111B4
S1130AA016C0C198AD9881E08093BD001092A40057
S1130AB0109282001092810010926E0010926D00CC
S1130AC08091CC009091CD00892B29F008958091DC
S1130AD0BD008130E1F41092820010928100809177
S1130AE0A5009091A60001969093A6008093A5007E
S1130AF008952091B9003091BA008217930709F044
S1130B0073CF71CF8091A400813009F4B4CF0895DC
S1070B10F894FFCF83
S1050B140500D6
S9030000FC
